{
    "_format": "hh-sol-artifact-1",
    "contractName": "BoundFinanceLidoVault",
    "sourceName": "contracts/Lidostaking.sol",
    "abi": [
        {
            "inputs": [
                {
                    "internalType": "address",
                    "name": "_stETH",
                    "type": "address"
                },
                {
                    "internalType": "address",
                    "name": "_withdrawaddress",
                    "type": "address"
                }
            ],
            "stateMutability": "nonpayable",
            "type": "constructor"
        },
        {
            "anonymous": false,
            "inputs": [
                {
                    "indexed": false,
                    "internalType": "uint256",
                    "name": "requestId",
                    "type": "uint256"
                },
                {
                    "indexed": false,
                    "internalType": "address",
                    "name": "destination",
                    "type": "address"
                }
            ],
            "name": "ClaimInitiated",
            "type": "event"
        },
        {
            "anonymous": false,
            "inputs": [
                {
                    "indexed": true,
                    "internalType": "address",
                    "name": "user",
                    "type": "address"
                },
                {
                    "indexed": true,
                    "internalType": "address",
                    "name": "collateralAsset",
                    "type": "address"
                },
                {
                    "indexed": false,
                    "internalType": "uint256",
                    "name": "depositedValue",
                    "type": "uint256"
                },
                {
                    "indexed": false,
                    "internalType": "uint256",
                    "name": "collateralValue",
                    "type": "uint256"
                },
                {
                    "indexed": false,
                    "internalType": "uint256",
                    "name": "timestamp",
                    "type": "uint256"
                }
            ],
            "name": "DepositEther",
            "type": "event"
        },
        {
            "anonymous": false,
            "inputs": [
                {
                    "indexed": false,
                    "internalType": "uint256",
                    "name": "requestId",
                    "type": "uint256"
                }
            ],
            "name": "EtherClaimedFromLido",
            "type": "event"
        },
        {
            "anonymous": false,
            "inputs": [
                {
                    "indexed": false,
                    "internalType": "uint256",
                    "name": "stETHAmount",
                    "type": "uint256"
                },
                {
                    "indexed": false,
                    "internalType": "uint256",
                    "name": "realAmount",
                    "type": "uint256"
                },
                {
                    "indexed": false,
                    "internalType": "uint256[]",
                    "name": "requestIds",
                    "type": "uint256[]"
                }
            ],
            "name": "ExcessStethRequested",
            "type": "event"
        },
        {
            "anonymous": false,
            "inputs": [
                {
                    "indexed": false,
                    "internalType": "uint256",
                    "name": "amount",
                    "type": "uint256"
                },
                {
                    "indexed": false,
                    "internalType": "enum BoundFinanceLidoVault.WithdrawalDestination",
                    "name": "destination",
                    "type": "uint8"
                },
                {
                    "indexed": false,
                    "internalType": "uint256[]",
                    "name": "requestIds",
                    "type": "uint256[]"
                }
            ],
            "name": "LidoWithdrawRequestedTo",
            "type": "event"
        },
        {
            "anonymous": false,
            "inputs": [
                {
                    "indexed": false,
                    "internalType": "uint256",
                    "name": "amountIn",
                    "type": "uint256"
                },
                {
                    "indexed": false,
                    "internalType": "uint256",
                    "name": "amountToTub",
                    "type": "uint256"
                },
                {
                    "indexed": false,
                    "internalType": "uint256",
                    "name": "amountForSwap",
                    "type": "uint256"
                },
                {
                    "indexed": false,
                    "internalType": "uint256",
                    "name": "amountToCP",
                    "type": "uint256"
                },
                {
                    "indexed": false,
                    "internalType": "uint256",
                    "name": "amountOut",
                    "type": "uint256"
                }
            ],
            "name": "RewardSplit",
            "type": "event"
        },
        {
            "inputs": [],
            "name": "BCKETH",
            "outputs": [
                {
                    "internalType": "address",
                    "name": "",
                    "type": "address"
                }
            ],
            "stateMutability": "view",
            "type": "function"
        },
        {
            "inputs": [],
            "name": "BCKsave",
            "outputs": [
                {
                    "internalType": "contract BCKsavingsAccount",
                    "name": "",
                    "type": "address"
                }
            ],
            "stateMutability": "view",
            "type": "function"
        },
        {
            "inputs": [],
            "name": "USDC",
            "outputs": [
                {
                    "internalType": "address",
                    "name": "",
                    "type": "address"
                }
            ],
            "stateMutability": "view",
            "type": "function"
        },
        {
            "inputs": [],
            "name": "WETH9",
            "outputs": [
                {
                    "internalType": "address",
                    "name": "",
                    "type": "address"
                }
            ],
            "stateMutability": "view",
            "type": "function"
        },
        {
            "inputs": [],
            "name": "WETH9Token",
            "outputs": [
                {
                    "internalType": "contract IWETH9",
                    "name": "",
                    "type": "address"
                }
            ],
            "stateMutability": "view",
            "type": "function"
        },
        {
            "inputs": [],
            "name": "cashbackandprotocol",
            "outputs": [
                {
                    "internalType": "address payable",
                    "name": "",
                    "type": "address"
                }
            ],
            "stateMutability": "view",
            "type": "function"
        },
        {
            "inputs": [
                {
                    "internalType": "uint256",
                    "name": "requestId",
                    "type": "uint256"
                }
            ],
            "name": "checkStatusRequestIDs",
            "outputs": [
                {
                    "components": [
                        {
                            "internalType": "uint256",
                            "name": "amountOfStETH",
                            "type": "uint256"
                        },
                        {
                            "internalType": "uint256",
                            "name": "amountOfShares",
                            "type": "uint256"
                        },
                        {
                            "internalType": "address",
                            "name": "owner",
                            "type": "address"
                        },
                        {
                            "internalType": "uint256",
                            "name": "timestamp",
                            "type": "uint256"
                        },
                        {
                            "internalType": "bool",
                            "name": "isFinalized",
                            "type": "bool"
                        },
                        {
                            "internalType": "bool",
                            "name": "isClaimed",
                            "type": "bool"
                        }
                    ],
                    "internalType": "struct WithdrawalRequestStatus[]",
                    "name": "statuses",
                    "type": "tuple[]"
                }
            ],
            "stateMutability": "view",
            "type": "function"
        },
        {
            "inputs": [],
            "name": "checksRequestIDs",
            "outputs": [
                {
                    "internalType": "uint256[]",
                    "name": "requestsIds",
                    "type": "uint256[]"
                }
            ],
            "stateMutability": "view",
            "type": "function"
        },
        {
            "inputs": [
                {
                    "internalType": "uint256",
                    "name": "requestId",
                    "type": "uint256"
                }
            ],
            "name": "claimEtherFromLido",
            "outputs": [],
            "stateMutability": "nonpayable",
            "type": "function"
        },
        {
            "inputs": [
                {
                    "internalType": "uint256",
                    "name": "requestId",
                    "type": "uint256"
                }
            ],
            "name": "claimTo",
            "outputs": [],
            "stateMutability": "nonpayable",
            "type": "function"
        },
        {
            "inputs": [],
            "name": "collateralAsset",
            "outputs": [
                {
                    "internalType": "contract IERC20",
                    "name": "",
                    "type": "address"
                }
            ],
            "stateMutability": "view",
            "type": "function"
        },
        {
            "inputs": [],
            "name": "depositEtherToMint",
            "outputs": [],
            "stateMutability": "payable",
            "type": "function"
        },
        {
            "inputs": [
                {
                    "internalType": "address",
                    "name": "",
                    "type": "address"
                }
            ],
            "name": "depositedTime",
            "outputs": [
                {
                    "internalType": "uint256",
                    "name": "",
                    "type": "uint256"
                }
            ],
            "stateMutability": "view",
            "type": "function"
        },
        {
            "inputs": [
                {
                    "internalType": "uint256",
                    "name": "stETHAmount",
                    "type": "uint256"
                }
            ],
            "name": "excessSteth",
            "outputs": [
                {
                    "internalType": "uint256[]",
                    "name": "requestIds",
                    "type": "uint256[]"
                }
            ],
            "stateMutability": "nonpayable",
            "type": "function"
        },
        {
            "inputs": [],
            "name": "lidoManager",
            "outputs": [
                {
                    "internalType": "address",
                    "name": "",
                    "type": "address"
                }
            ],
            "stateMutability": "view",
            "type": "function"
        },
        {
            "inputs": [],
            "name": "lidoRebaseTime",
            "outputs": [
                {
                    "internalType": "uint256",
                    "name": "",
                    "type": "uint256"
                }
            ],
            "stateMutability": "view",
            "type": "function"
        },
        {
            "inputs": [],
            "name": "lidowithdraw",
            "outputs": [
                {
                    "internalType": "contract Ilidowithdraw",
                    "name": "",
                    "type": "address"
                }
            ],
            "stateMutability": "view",
            "type": "function"
        },
        {
            "inputs": [],
            "name": "owner",
            "outputs": [
                {
                    "internalType": "address",
                    "name": "",
                    "type": "address"
                }
            ],
            "stateMutability": "view",
            "type": "function"
        },
        {
            "inputs": [],
            "name": "poolFee",
            "outputs": [
                {
                    "internalType": "uint24",
                    "name": "",
                    "type": "uint24"
                }
            ],
            "stateMutability": "view",
            "type": "function"
        },
        {
            "inputs": [],
            "name": "reservecontract",
            "outputs": [
                {
                    "internalType": "address",
                    "name": "",
                    "type": "address"
                }
            ],
            "stateMutability": "view",
            "type": "function"
        },
        {
            "inputs": [],
            "name": "routerAddress",
            "outputs": [
                {
                    "internalType": "address",
                    "name": "",
                    "type": "address"
                }
            ],
            "stateMutability": "view",
            "type": "function"
        },
        {
            "inputs": [
                {
                    "internalType": "address",
                    "name": "_address",
                    "type": "address"
                }
            ],
            "name": "seeBalance",
            "outputs": [
                {
                    "internalType": "uint256",
                    "name": "",
                    "type": "uint256"
                }
            ],
            "stateMutability": "view",
            "type": "function"
        },
        {
            "inputs": [
                {
                    "internalType": "address",
                    "name": "_reserveaddress",
                    "type": "address"
                },
                {
                    "internalType": "address",
                    "name": "_BCKETH",
                    "type": "address"
                }
            ],
            "name": "setBCKContractAddress",
            "outputs": [],
            "stateMutability": "nonpayable",
            "type": "function"
        },
        {
            "inputs": [
                {
                    "internalType": "address",
                    "name": "_manager",
                    "type": "address"
                }
            ],
            "name": "setLidoManager",
            "outputs": [],
            "stateMutability": "nonpayable",
            "type": "function"
        },
        {
            "inputs": [
                {
                    "internalType": "uint256",
                    "name": "_time",
                    "type": "uint256"
                }
            ],
            "name": "setLidoRebaseTime",
            "outputs": [],
            "stateMutability": "nonpayable",
            "type": "function"
        },
        {
            "inputs": [
                {
                    "internalType": "uint24",
                    "name": "fee",
                    "type": "uint24"
                }
            ],
            "name": "setPoolFee",
            "outputs": [],
            "stateMutability": "nonpayable",
            "type": "function"
        },
        {
            "inputs": [
                {
                    "internalType": "address",
                    "name": "_tub",
                    "type": "address"
                },
                {
                    "internalType": "address",
                    "name": "_savings",
                    "type": "address"
                },
                {
                    "internalType": "address payable",
                    "name": "_cashbackandprotocol",
                    "type": "address"
                }
            ],
            "name": "setTubBCKSavings",
            "outputs": [],
            "stateMutability": "nonpayable",
            "type": "function"
        },
        {
            "inputs": [
                {
                    "internalType": "uint256",
                    "name": "amountIn",
                    "type": "uint256"
                }
            ],
            "name": "splitReward",
            "outputs": [],
            "stateMutability": "nonpayable",
            "type": "function"
        },
        {
            "inputs": [],
            "name": "step",
            "outputs": [
                {
                    "internalType": "uint256",
                    "name": "",
                    "type": "uint256"
                }
            ],
            "stateMutability": "view",
            "type": "function"
        },
        {
            "inputs": [],
            "name": "swapRouter",
            "outputs": [
                {
                    "internalType": "contract ISwapRouter",
                    "name": "",
                    "type": "address"
                }
            ],
            "stateMutability": "view",
            "type": "function"
        },
        {
            "inputs": [],
            "name": "totalDepositedAsset",
            "outputs": [
                {
                    "internalType": "uint256",
                    "name": "",
                    "type": "uint256"
                }
            ],
            "stateMutability": "view",
            "type": "function"
        },
        {
            "inputs": [],
            "name": "tub",
            "outputs": [
                {
                    "internalType": "contract Tub",
                    "name": "",
                    "type": "address"
                }
            ],
            "stateMutability": "view",
            "type": "function"
        },
        {
            "inputs": [
                {
                    "internalType": "uint256",
                    "name": "stETHAmount",
                    "type": "uint256"
                },
                {
                    "internalType": "enum BoundFinanceLidoVault.WithdrawalDestination",
                    "name": "_destination",
                    "type": "uint8"
                }
            ],
            "name": "withdrawLidoTo",
            "outputs": [
                {
                    "internalType": "uint256[]",
                    "name": "requestIds",
                    "type": "uint256[]"
                }
            ],
            "stateMutability": "nonpayable",
            "type": "function"
        },
        {
            "inputs": [
                {
                    "internalType": "uint256",
                    "name": "",
                    "type": "uint256"
                }
            ],
            "name": "withdrawalDestinations",
            "outputs": [
                {
                    "internalType": "enum BoundFinanceLidoVault.WithdrawalDestination",
                    "name": "",
                    "type": "uint8"
                }
            ],
            "stateMutability": "view",
            "type": "function"
        },
        {
            "stateMutability": "payable",
            "type": "receive"
        }
    ],
    "bytecode": "0x60c060405261a8c0600255610bb8600460006101000a81548162ffffff021916908362ffffff16021790555073e592427a0aece92de3edee1f18e0157c0586156473ffffffffffffffffffffffffffffffffffffffff1660a09073ffffffffffffffffffffffffffffffffffffffff1681525073b4fbf271143f4fbf7b91a5ded31805e42b2208d6600a60006101000a81548173ffffffffffffffffffffffffffffffffffffffff021916908373ffffffffffffffffffffffffffffffffffffffff160217905550348015620000d457600080fd5b50604051620047df380380620047df8339818101604052810190620000fa919062000221565b336000806101000a81548173ffffffffffffffffffffffffffffffffffffffff021916908373ffffffffffffffffffffffffffffffffffffffff1602179055508173ffffffffffffffffffffffffffffffffffffffff1660808173ffffffffffffffffffffffffffffffffffffffff168152505080600660006101000a81548173ffffffffffffffffffffffffffffffffffffffff021916908373ffffffffffffffffffffffffffffffffffffffff160217905550505062000268565b600080fd5b600073ffffffffffffffffffffffffffffffffffffffff82169050919050565b6000620001e982620001bc565b9050919050565b620001fb81620001dc565b81146200020757600080fd5b50565b6000815190506200021b81620001f0565b92915050565b600080604083850312156200023b576200023a620001b7565b5b60006200024b858286016200020a565b92505060206200025e858286016200020a565b9150509250929050565b60805160a051614512620002cd6000396000818161221001528181612b150152612c6e015260008181610b6c01528181610c740152818161106a015281816111c9015281816115b701528181611b120152818161246a015261254501526145126000f3fe6080604052600436106101fd5760003560e01c806389a302711161010d578063c299ebb1116100a0578063e25fe1751161006f578063e25fe17514610713578063eba18fe81461073e578063f0d8daae1461077b578063f1b6868f146107a6578063f2fcb1d6146107cf57610204565b8063c299ebb114610659578063c31c9c0714610682578063c6348ae9146106ad578063d220978d146106d657610204565b8063aabaecd6116100dc578063aabaecd6146105ad578063b66a8a93146105d8578063bb8e7b1214610603578063bf9934421461062e57610204565b806389a30271146104f15780638aeb87071461051c5780638d27b1a9146105595780638da5cb5b1461058257610204565b80634a7f299e11610190578063627e96161161015f578063627e96161461040c5780636ca02b70146104375780636d56d26c1461047457806373dd250c1461049d5780637d9048d4146104c657610204565b80634a7f299e146103835780634aa4a4fc146103ac5780634d441c01146103d7578063556eb4a7146103e157610204565b806317d145a2116101cc57806317d145a2146102d75780633268cc561461030257806334e70cc21461032d5780633c16c8e71461035857610204565b80630238b3311461020957806302e1e14014610232578063050e52b61461026f578063089fe6aa146102ac57610204565b3661020457005b600080fd5b34801561021557600080fd5b50610230600480360381019061022b9190612d5a565b6107fa565b005b34801561023e57600080fd5b5061025960048036038101906102549190612de5565b610a65565b6040516102669190612e21565b60405180910390f35b34801561027b57600080fd5b5061029660048036038101906102919190612d5a565b610a7d565b6040516102a39190612efa565b60405180910390f35b3480156102b857600080fd5b506102c1610e94565b6040516102ce9190612f3a565b60405180910390f35b3480156102e357600080fd5b506102ec610ea9565b6040516102f99190612e21565b60405180910390f35b34801561030e57600080fd5b50610317610eaf565b6040516103249190612f64565b60405180910390f35b34801561033957600080fd5b50610342610ec7565b60405161034f9190612fde565b60405180910390f35b34801561036457600080fd5b5061036d610eed565b60405161037a919061301a565b60405180910390f35b34801561038f57600080fd5b506103aa60048036038101906103a59190612d5a565b610f13565b005b3480156103b857600080fd5b506103c1611003565b6040516103ce9190612f64565b60405180910390f35b6103df61101b565b005b3480156103ed57600080fd5b506103f6611253565b6040516104039190612f64565b60405180910390f35b34801561041857600080fd5b50610421611279565b60405161042e9190613056565b60405180910390f35b34801561044357600080fd5b5061045e60048036038101906104599190612d5a565b61129f565b60405161046b91906131c5565b60405180910390f35b34801561048057600080fd5b5061049b60048036038101906104969190612de5565b6113bf565b005b3480156104a957600080fd5b506104c460048036038101906104bf9190613213565b6114e9565b005b3480156104d257600080fd5b506104db611575565b6040516104e89190612f64565b60405180910390f35b3480156104fd57600080fd5b5061050661159b565b6040516105139190612f64565b60405180910390f35b34801561052857600080fd5b50610543600480360381019061053e9190612de5565b6115b3565b6040516105509190612e21565b60405180910390f35b34801561056557600080fd5b50610580600480360381019061057b9190612d5a565b611656565b005b34801561058e57600080fd5b50610597611aec565b6040516105a49190612f64565b60405180910390f35b3480156105b957600080fd5b506105c2611b10565b6040516105cf9190613261565b60405180910390f35b3480156105e457600080fd5b506105ed611b34565b6040516105fa919061329d565b60405180910390f35b34801561060f57600080fd5b50610618611b5a565b60405161062591906132d9565b60405180910390f35b34801561063a57600080fd5b50610643611b80565b6040516106509190612e21565b60405180910390f35b34801561066557600080fd5b50610680600480360381019061067b9190612d5a565b611b86565b005b34801561068e57600080fd5b5061069761220e565b6040516106a49190613315565b60405180910390f35b3480156106b957600080fd5b506106d460048036038101906106cf919061335c565b612232565b005b3480156106e257600080fd5b506106fd60048036038101906106f89190612d5a565b612359565b60405161070a9190613426565b60405180910390f35b34801561071f57600080fd5b50610728612379565b6040516107359190612e21565b60405180910390f35b34801561074a57600080fd5b5061076560048036038101906107609190613466565b61237f565b6040516107729190612efa565b60405180910390f35b34801561078757600080fd5b506107906127d3565b60405161079d9190612efa565b60405180910390f35b3480156107b257600080fd5b506107cd60048036038101906107c891906134a6565b61287b565b005b3480156107db57600080fd5b506107e46129e7565b6040516107f19190612f64565b60405180910390f35b6000600167ffffffffffffffff811115610817576108166134e6565b5b6040519080825280602002602001820160405280156108455781602001602082028036833780820191505090505b509050818160008151811061085d5761085c613515565b5b6020026020010181815250506000600660009054906101000a900473ffffffffffffffffffffffffffffffffffffffff1673ffffffffffffffffffffffffffffffffffffffff1663b8c4b85a836040518263ffffffff1660e01b81526004016108c69190612efa565b600060405180830381865afa1580156108e3573d6000803e3d6000fd5b505050506040513d6000823e3d601f19601f8201168201806040525081019061090c9190613769565b90508060008151811061092257610921613515565b5b602002602001015160800151801561095757508060008151811061094957610948613515565b5b602002602001015160a00151155b15610a2557600660009054906101000a900473ffffffffffffffffffffffffffffffffffffffff1673ffffffffffffffffffffffffffffffffffffffff1663f8444436846040518263ffffffff1660e01b81526004016109b79190612e21565b600060405180830381600087803b1580156109d157600080fd5b505af11580156109e5573d6000803e3d6000fd5b505050507fbc5add6879e46b3602ff92ea4c36b1d3870c238d8ce0b13b4c62a64fb93eff3483604051610a189190612e21565b60405180910390a1610a60565b6040517f08c379a0000000000000000000000000000000000000000000000000000000008152600401610a5790613835565b60405180910390fd5b505050565b600d6020528060005260406000206000915090505481565b606060008054906101000a900473ffffffffffffffffffffffffffffffffffffffff1673ffffffffffffffffffffffffffffffffffffffff163373ffffffffffffffffffffffffffffffffffffffff161480610b265750600760009054906101000a900473ffffffffffffffffffffffffffffffffffffffff1673ffffffffffffffffffffffffffffffffffffffff163373ffffffffffffffffffffffffffffffffffffffff16145b610b65576040517f08c379a0000000000000000000000000000000000000000000000000000000008152600401610b5c906138a1565b60405180910390fd5b60006003547f000000000000000000000000000000000000000000000000000000000000000073ffffffffffffffffffffffffffffffffffffffff166370a08231306040518263ffffffff1660e01b8152600401610bc39190612f64565b602060405180830381865afa158015610be0573d6000803e3d6000fd5b505050506040513d601f19601f82011682018060405250810190610c0491906138c1565b610c0e919061391d565b9050600081118015610c205750600083115b610c5f576040517f08c379a0000000000000000000000000000000000000000000000000000000008152600401610c56906139c3565b60405180910390fd5b6000818411610c6e5783610c70565b815b90507f000000000000000000000000000000000000000000000000000000000000000073ffffffffffffffffffffffffffffffffffffffff1663095ea7b3600660009054906101000a900473ffffffffffffffffffffffffffffffffffffffff16836040518363ffffffff1660e01b8152600401610cef9291906139e3565b6020604051808303816000875af1158015610d0e573d6000803e3d6000fd5b505050506040513d601f19601f82011682018060405250810190610d329190613a0c565b610d3b57600080fd5b6000600167ffffffffffffffff811115610d5857610d576134e6565b5b604051908082528060200260200182016040528015610d865781602001602082028036833780820191505090505b5090508181600081518110610d9e57610d9d613515565b5b6020026020010181815250507f2377521b28ab4556ae4e98a4f17c6a9d7426d7361dc6b74b2cbfa4c390bcbc89858386604051610ddd93929190613a39565b60405180910390a1600660009054906101000a900473ffffffffffffffffffffffffffffffffffffffff1673ffffffffffffffffffffffffffffffffffffffff1663d668104282306040518363ffffffff1660e01b8152600401610e42929190613a77565b6000604051808303816000875af1158015610e61573d6000803e3d6000fd5b505050506040513d6000823e3d601f19601f82011682018060405250810190610e8a9190613b6a565b9350505050919050565b600460009054906101000a900462ffffff1681565b60035481565b73e592427a0aece92de3edee1f18e0157c0586156481565b600860009054906101000a900473ffffffffffffffffffffffffffffffffffffffff1681565b600a60009054906101000a900473ffffffffffffffffffffffffffffffffffffffff1681565b60008054906101000a900473ffffffffffffffffffffffffffffffffffffffff1673ffffffffffffffffffffffffffffffffffffffff163373ffffffffffffffffffffffffffffffffffffffff161480610fba5750600760009054906101000a900473ffffffffffffffffffffffffffffffffffffffff1673ffffffffffffffffffffffffffffffffffffffff163373ffffffffffffffffffffffffffffffffffffffff16145b610ff9576040517f08c379a0000000000000000000000000000000000000000000000000000000008152600401610ff0906138a1565b60405180910390fd5b8060028190555050565b73b4fbf271143f4fbf7b91a5ded31805e42b2208d681565b670de0b6b3a7640000341015611066576040517f08c379a000000000000000000000000000000000000000000000000000000000815260040161105d90613bff565b60405180910390fd5b60007f000000000000000000000000000000000000000000000000000000000000000073ffffffffffffffffffffffffffffffffffffffff1663a1903eab3460008054906101000a900473ffffffffffffffffffffffffffffffffffffffff166040518363ffffffff1660e01b81526004016110e29190612f64565b60206040518083038185885af1158015611100573d6000803e3d6000fd5b50505050506040513d601f19601f8201168201806040525081019061112591906138c1565b90506000811161116a576040517f08c379a000000000000000000000000000000000000000000000000000000000815260040161116190613c6b565b60405180910390fd5b346003600082825461117c9190613c8b565b9250508190555042600d60003373ffffffffffffffffffffffffffffffffffffffff1673ffffffffffffffffffffffffffffffffffffffff168152602001908152602001600020819055507f000000000000000000000000000000000000000000000000000000000000000073ffffffffffffffffffffffffffffffffffffffff163373ffffffffffffffffffffffffffffffffffffffff167f6a7b44958c301c33959b506daa1c81df7d298aa58fd6c510f4fd967f0eb87ce834344260405161124893929190613cbf565b60405180910390a350565b600b60009054906101000a900473ffffffffffffffffffffffffffffffffffffffff1681565b600660009054906101000a900473ffffffffffffffffffffffffffffffffffffffff1681565b60606000600167ffffffffffffffff8111156112be576112bd6134e6565b5b6040519080825280602002602001820160405280156112ec5781602001602082028036833780820191505090505b509050828160008151811061130457611303613515565b5b6020026020010181815250506000600660009054906101000a900473ffffffffffffffffffffffffffffffffffffffff1673ffffffffffffffffffffffffffffffffffffffff1663b8c4b85a836040518263ffffffff1660e01b815260040161136d9190612efa565b600060405180830381865afa15801561138a573d6000803e3d6000fd5b505050506040513d6000823e3d601f19601f820116820180604052508101906113b39190613769565b90508092505050919050565b60008054906101000a900473ffffffffffffffffffffffffffffffffffffffff1673ffffffffffffffffffffffffffffffffffffffff163373ffffffffffffffffffffffffffffffffffffffff1614806114665750600760009054906101000a900473ffffffffffffffffffffffffffffffffffffffff1673ffffffffffffffffffffffffffffffffffffffff163373ffffffffffffffffffffffffffffffffffffffff16145b6114a5576040517f08c379a000000000000000000000000000000000000000000000000000000000815260040161149c906138a1565b60405180910390fd5b80600760006101000a81548173ffffffffffffffffffffffffffffffffffffffff021916908373ffffffffffffffffffffffffffffffffffffffff16021790555050565b6101f48162ffffff1614806115045750610bb88162ffffff16145b80611514575060648162ffffff16145b611553576040517f08c379a000000000000000000000000000000000000000000000000000000000815260040161154a90613d42565b60405180910390fd5b80600460006101000a81548162ffffff021916908362ffffff16021790555050565b600760009054906101000a900473ffffffffffffffffffffffffffffffffffffffff1681565b731ab8f350041be791919250f7890dad850993443781565b60007f000000000000000000000000000000000000000000000000000000000000000073ffffffffffffffffffffffffffffffffffffffff166370a08231836040518263ffffffff1660e01b815260040161160e9190612f64565b602060405180830381865afa15801561162b573d6000803e3d6000fd5b505050506040513d601f19601f8201168201806040525081019061164f91906138c1565b9050919050565b6000600167ffffffffffffffff811115611673576116726134e6565b5b6040519080825280602002602001820160405280156116a15781602001602082028036833780820191505090505b50905081816000815181106116b9576116b8613515565b5b6020026020010181815250506000600660009054906101000a900473ffffffffffffffffffffffffffffffffffffffff1673ffffffffffffffffffffffffffffffffffffffff1663b8c4b85a836040518263ffffffff1660e01b81526004016117229190612efa565b600060405180830381865afa15801561173f573d6000803e3d6000fd5b505050506040513d6000823e3d601f19601f820116820180604052508101906117689190613769565b90508060008151811061177e5761177d613515565b5b60200260200101516080015180156117b35750806000815181106117a5576117a4613515565b5b602002602001015160a00151155b15611aac576000600660009054906101000a900473ffffffffffffffffffffffffffffffffffffffff1673ffffffffffffffffffffffffffffffffffffffff166362abe3fa846001600660009054906101000a900473ffffffffffffffffffffffffffffffffffffffff1673ffffffffffffffffffffffffffffffffffffffff1663526eae3e6040518163ffffffff1660e01b8152600401602060405180830381865afa158015611868573d6000803e3d6000fd5b505050506040513d601f19601f8201168201806040525081019061188c91906138c1565b6040518463ffffffff1660e01b81526004016118aa93929190613d9d565b600060405180830381865afa1580156118c7573d6000803e3d6000fd5b505050506040513d6000823e3d601f19601f820116820180604052508101906118f09190613b6a565b90506000806001811115611907576119066133af565b5b600e600087815260200190815260200160002060009054906101000a900460ff16600181111561193a576119396133af565b5b0361196957600b60009054906101000a900473ffffffffffffffffffffffffffffffffffffffff1690506119db565b60018081111561197c5761197b6133af565b5b600e600087815260200190815260200160002060009054906101000a900460ff1660018111156119af576119ae6133af565b5b036119da57600160009054906101000a900473ffffffffffffffffffffffffffffffffffffffff1690505b5b600660009054906101000a900473ffffffffffffffffffffffffffffffffffffffff1673ffffffffffffffffffffffffffffffffffffffff16635e7eead98584846040518463ffffffff1660e01b8152600401611a3a93929190613ddb565b600060405180830381600087803b158015611a5457600080fd5b505af1158015611a68573d6000803e3d6000fd5b505050507f16110602114a9075a58c79178f3c42e8f3efedf21fe3169ef4d674ee461bfb568582604051611a9d929190613e20565b60405180910390a15050611ae7565b6040517f08c379a0000000000000000000000000000000000000000000000000000000008152600401611ade90613835565b60405180910390fd5b505050565b60008054906101000a900473ffffffffffffffffffffffffffffffffffffffff1681565b7f000000000000000000000000000000000000000000000000000000000000000081565b600c60009054906101000a900473ffffffffffffffffffffffffffffffffffffffff1681565b600960009054906101000a900473ffffffffffffffffffffffffffffffffffffffff1681565b60025481565b60008054906101000a900473ffffffffffffffffffffffffffffffffffffffff1673ffffffffffffffffffffffffffffffffffffffff163373ffffffffffffffffffffffffffffffffffffffff161480611c2d5750600760009054906101000a900473ffffffffffffffffffffffffffffffffffffffff1673ffffffffffffffffffffffffffffffffffffffff163373ffffffffffffffffffffffffffffffffffffffff16145b611c6c576040517f08c379a0000000000000000000000000000000000000000000000000000000008152600401611c63906138a1565b60405180910390fd5b80471015611caf576040517f08c379a0000000000000000000000000000000000000000000000000000000008152600401611ca690613e95565b60405180910390fd5b600073ffffffffffffffffffffffffffffffffffffffff16600c60009054906101000a900473ffffffffffffffffffffffffffffffffffffffff1673ffffffffffffffffffffffffffffffffffffffff1614158015611d5d5750600073ffffffffffffffffffffffffffffffffffffffff16600860009054906101000a900473ffffffffffffffffffffffffffffffffffffffff1673ffffffffffffffffffffffffffffffffffffffff1614155b8015611db85750600073ffffffffffffffffffffffffffffffffffffffff16600960009054906101000a900473ffffffffffffffffffffffffffffffffffffffff1673ffffffffffffffffffffffffffffffffffffffff1614155b611df7576040517f08c379a0000000000000000000000000000000000000000000000000000000008152600401611dee90613f4d565b60405180910390fd5b6000600582611e069190613f9c565b905060006064604b8385611e1a919061391d565b611e249190613fcd565b611e2e9190613f9c565b90506000818385611e3f919061391d565b611e49919061391d565b9050600083118015611e5b5750600082115b8015611e675750600081115b611ea6576040517f08c379a0000000000000000000000000000000000000000000000000000000008152600401611e9d9061405b565b60405180910390fd5b600860009054906101000a900473ffffffffffffffffffffffffffffffffffffffff1673ffffffffffffffffffffffffffffffffffffffff16636f4a2cd0846040518263ffffffff1660e01b81526004016000604051808303818588803b158015611f1057600080fd5b505af1158015611f24573d6000803e3d6000fd5b50505050506000611f3483612a0d565b905060008111611f79576040517f08c379a0000000000000000000000000000000000000000000000000000000008152600401611f70906140c7565b60405180910390fd5b731ab8f350041be791919250f7890dad850993443773ffffffffffffffffffffffffffffffffffffffff1663095ea7b3600960009054906101000a900473ffffffffffffffffffffffffffffffffffffffff16836040518363ffffffff1660e01b8152600401611fea9291906139e3565b6020604051808303816000875af1158015612009573d6000803e3d6000fd5b505050506040513d601f19601f8201168201806040525081019061202d9190613a0c565b61206c576040517f08c379a000000000000000000000000000000000000000000000000000000000815260040161206390614133565b60405180910390fd5b600960009054906101000a900473ffffffffffffffffffffffffffffffffffffffff1673ffffffffffffffffffffffffffffffffffffffff1663b3bf2ff1826040518263ffffffff1660e01b81526004016120c79190612e21565b600060405180830381600087803b1580156120e157600080fd5b505af11580156120f5573d6000803e3d6000fd5b505050506000600c60009054906101000a900473ffffffffffffffffffffffffffffffffffffffff1673ffffffffffffffffffffffffffffffffffffffff168360405161214190614184565b60006040518083038185875af1925050503d806000811461217e576040519150601f19603f3d011682016040523d82523d6000602084013e612183565b606091505b50509050806121c7576040517f08c379a00000000000000000000000000000000000000000000000000000000081526004016121be906141e5565b60405180910390fd5b7f9dc19af6f51f4141f11183a3db630ba47911d654d96b44c55ebcd6cde1f7f8b286868686866040516121fe959493929190614205565b60405180910390a1505050505050565b7f000000000000000000000000000000000000000000000000000000000000000081565b600060055414612277576040517f08c379a000000000000000000000000000000000000000000000000000000000815260040161226e906142a4565b60405180910390fd5b82600860006101000a81548173ffffffffffffffffffffffffffffffffffffffff021916908373ffffffffffffffffffffffffffffffffffffffff16021790555081600960006101000a81548173ffffffffffffffffffffffffffffffffffffffff021916908373ffffffffffffffffffffffffffffffffffffffff16021790555080600c60006101000a81548173ffffffffffffffffffffffffffffffffffffffff021916908373ffffffffffffffffffffffffffffffffffffffff16021790555060016005600082825461234d9190613c8b565b92505081905550505050565b600e6020528060005260406000206000915054906101000a900460ff1681565b60055481565b606060008054906101000a900473ffffffffffffffffffffffffffffffffffffffff1673ffffffffffffffffffffffffffffffffffffffff163373ffffffffffffffffffffffffffffffffffffffff1614806124285750600760009054906101000a900473ffffffffffffffffffffffffffffffffffffffff1673ffffffffffffffffffffffffffffffffffffffff163373ffffffffffffffffffffffffffffffffffffffff16145b612467576040517f08c379a000000000000000000000000000000000000000000000000000000000815260040161245e906138a1565b60405180910390fd5b827f000000000000000000000000000000000000000000000000000000000000000073ffffffffffffffffffffffffffffffffffffffff166370a08231306040518263ffffffff1660e01b81526004016124c19190612f64565b602060405180830381865afa1580156124de573d6000803e3d6000fd5b505050506040513d601f19601f8201168201806040525081019061250291906138c1565b1015612543576040517f08c379a000000000000000000000000000000000000000000000000000000000815260040161253a90614336565b60405180910390fd5b7f000000000000000000000000000000000000000000000000000000000000000073ffffffffffffffffffffffffffffffffffffffff1663095ea7b3600660009054906101000a900473ffffffffffffffffffffffffffffffffffffffff16856040518363ffffffff1660e01b81526004016125c09291906139e3565b6020604051808303816000875af11580156125df573d6000803e3d6000fd5b505050506040513d601f19601f820116820180604052508101906126039190613a0c565b61260c57600080fd5b6000600167ffffffffffffffff811115612629576126286134e6565b5b6040519080825280602002602001820160405280156126575781602001602082028036833780820191505090505b509050838160008151811061266f5761266e613515565b5b602002602001018181525050600660009054906101000a900473ffffffffffffffffffffffffffffffffffffffff1673ffffffffffffffffffffffffffffffffffffffff1663d668104282306040518363ffffffff1660e01b81526004016126d8929190613a77565b6000604051808303816000875af11580156126f7573d6000803e3d6000fd5b505050506040513d6000823e3d601f19601f820116820180604052508101906127209190613b6a565b915082600e60008460008151811061273b5761273a613515565b5b6020026020010151815260200190815260200160002060006101000a81548160ff02191690836001811115612773576127726133af565b5b02179055507ffdea6daa71e087bedfb84efff81a844f3a3b626d1b9962d299f6235223b5f3a18484846040516127ab93929190614356565b60405180910390a183600360008282546127c5919061391d565b925050819055505092915050565b6060600660009054906101000a900473ffffffffffffffffffffffffffffffffffffffff1673ffffffffffffffffffffffffffffffffffffffff16637d031b65306040518263ffffffff1660e01b81526004016128309190612f64565b600060405180830381865afa15801561284d573d6000803e3d6000fd5b505050506040513d6000823e3d601f19601f820116820180604052508101906128769190613b6a565b905090565b60008054906101000a900473ffffffffffffffffffffffffffffffffffffffff1673ffffffffffffffffffffffffffffffffffffffff163373ffffffffffffffffffffffffffffffffffffffff1614806129225750600760009054906101000a900473ffffffffffffffffffffffffffffffffffffffff1673ffffffffffffffffffffffffffffffffffffffff163373ffffffffffffffffffffffffffffffffffffffff16145b612961576040517f08c379a0000000000000000000000000000000000000000000000000000000008152600401612958906138a1565b60405180910390fd5b81600b60006101000a81548173ffffffffffffffffffffffffffffffffffffffff021916908373ffffffffffffffffffffffffffffffffffffffff16021790555080600160006101000a81548173ffffffffffffffffffffffffffffffffffffffff021916908373ffffffffffffffffffffffffffffffffffffffff1602179055505050565b600160009054906101000a900473ffffffffffffffffffffffffffffffffffffffff1681565b600081471015612a52576040517f08c379a0000000000000000000000000000000000000000000000000000000008152600401612a49906143e0565b60405180910390fd5b600a60009054906101000a900473ffffffffffffffffffffffffffffffffffffffff1673ffffffffffffffffffffffffffffffffffffffff1663d0e30db0836040518263ffffffff1660e01b81526004016000604051808303818588803b158015612abc57600080fd5b505af1158015612ad0573d6000803e3d6000fd5b5050505050600a60009054906101000a900473ffffffffffffffffffffffffffffffffffffffff1673ffffffffffffffffffffffffffffffffffffffff1663095ea7b37f0000000000000000000000000000000000000000000000000000000000000000846040518363ffffffff1660e01b8152600401612b529291906139e3565b6020604051808303816000875af1158015612b71573d6000803e3d6000fd5b505050506040513d601f19601f82011682018060405250810190612b959190613a0c565b50600060405180610100016040528073b4fbf271143f4fbf7b91a5ded31805e42b2208d673ffffffffffffffffffffffffffffffffffffffff168152602001731ab8f350041be791919250f7890dad850993443773ffffffffffffffffffffffffffffffffffffffff168152602001600460009054906101000a900462ffffff1662ffffff1681526020013073ffffffffffffffffffffffffffffffffffffffff16815260200142815260200184815260200160008152602001600073ffffffffffffffffffffffffffffffffffffffff1681525090507f000000000000000000000000000000000000000000000000000000000000000073ffffffffffffffffffffffffffffffffffffffff1663414bf389826040518263ffffffff1660e01b8152600401612cc591906144c0565b6020604051808303816000875af1158015612ce4573d6000803e3d6000fd5b505050506040513d601f19601f82011682018060405250810190612d0891906138c1565b915050919050565b6000604051905090565b600080fd5b600080fd5b6000819050919050565b612d3781612d24565b8114612d4257600080fd5b50565b600081359050612d5481612d2e565b92915050565b600060208284031215612d7057612d6f612d1a565b5b6000612d7e84828501612d45565b91505092915050565b600073ffffffffffffffffffffffffffffffffffffffff82169050919050565b6000612db282612d87565b9050919050565b612dc281612da7565b8114612dcd57600080fd5b50565b600081359050612ddf81612db9565b92915050565b600060208284031215612dfb57612dfa612d1a565b5b6000612e0984828501612dd0565b91505092915050565b612e1b81612d24565b82525050565b6000602082019050612e366000830184612e12565b92915050565b600081519050919050565b600082825260208201905092915050565b6000819050602082019050919050565b612e7181612d24565b82525050565b6000612e838383612e68565b60208301905092915050565b6000602082019050919050565b6000612ea782612e3c565b612eb18185612e47565b9350612ebc83612e58565b8060005b83811015612eed578151612ed48882612e77565b9750612edf83612e8f565b925050600181019050612ec0565b5085935050505092915050565b60006020820190508181036000830152612f148184612e9c565b905092915050565b600062ffffff82169050919050565b612f3481612f1c565b82525050565b6000602082019050612f4f6000830184612f2b565b92915050565b612f5e81612da7565b82525050565b6000602082019050612f796000830184612f55565b92915050565b6000819050919050565b6000612fa4612f9f612f9a84612d87565b612f7f565b612d87565b9050919050565b6000612fb682612f89565b9050919050565b6000612fc882612fab565b9050919050565b612fd881612fbd565b82525050565b6000602082019050612ff36000830184612fcf565b92915050565b600061300482612fab565b9050919050565b61301481612ff9565b82525050565b600060208201905061302f600083018461300b565b92915050565b600061304082612fab565b9050919050565b61305081613035565b82525050565b600060208201905061306b6000830184613047565b92915050565b600081519050919050565b600082825260208201905092915050565b6000819050602082019050919050565b6130a681612da7565b82525050565b60008115159050919050565b6130c1816130ac565b82525050565b60c0820160008201516130dd6000850182612e68565b5060208201516130f06020850182612e68565b506040820151613103604085018261309d565b5060608201516131166060850182612e68565b50608082015161312960808501826130b8565b5060a082015161313c60a08501826130b8565b50505050565b600061314e83836130c7565b60c08301905092915050565b6000602082019050919050565b600061317282613071565b61317c818561307c565b93506131878361308d565b8060005b838110156131b857815161319f8882613142565b97506131aa8361315a565b92505060018101905061318b565b5085935050505092915050565b600060208201905081810360008301526131df8184613167565b905092915050565b6131f081612f1c565b81146131fb57600080fd5b50565b60008135905061320d816131e7565b92915050565b60006020828403121561322957613228612d1a565b5b6000613237848285016131fe565b91505092915050565b600061324b82612fab565b9050919050565b61325b81613240565b82525050565b60006020820190506132766000830184613252565b92915050565b600061328782612d87565b9050919050565b6132978161327c565b82525050565b60006020820190506132b2600083018461328e565b92915050565b60006132c382612fab565b9050919050565b6132d3816132b8565b82525050565b60006020820190506132ee60008301846132ca565b92915050565b60006132ff82612fab565b9050919050565b61330f816132f4565b82525050565b600060208201905061332a6000830184613306565b92915050565b6133398161327c565b811461334457600080fd5b50565b60008135905061335681613330565b92915050565b60008060006060848603121561337557613374612d1a565b5b600061338386828701612dd0565b935050602061339486828701612dd0565b92505060406133a586828701613347565b9150509250925092565b7f4e487b7100000000000000000000000000000000000000000000000000000000600052602160045260246000fd5b600281106133ef576133ee6133af565b5b50565b6000819050613400826133de565b919050565b6000613410826133f2565b9050919050565b61342081613405565b82525050565b600060208201905061343b6000830184613417565b92915050565b6002811061344e57600080fd5b50565b60008135905061346081613441565b92915050565b6000806040838503121561347d5761347c612d1a565b5b600061348b85828601612d45565b925050602061349c85828601613451565b9150509250929050565b600080604083850312156134bd576134bc612d1a565b5b60006134cb85828601612dd0565b92505060206134dc85828601612dd0565b9150509250929050565b7f4e487b7100000000000000000000000000000000000000000000000000000000600052604160045260246000fd5b7f4e487b7100000000000000000000000000000000000000000000000000000000600052603260045260246000fd5b600080fd5b6000601f19601f8301169050919050565b61356382613549565b810181811067ffffffffffffffff82111715613582576135816134e6565b5b80604052505050565b6000613595612d10565b90506135a1828261355a565b919050565b600067ffffffffffffffff8211156135c1576135c06134e6565b5b602082029050602081019050919050565b600080fd5b600080fd5b6000815190506135eb81612d2e565b92915050565b60008151905061360081612db9565b92915050565b61360f816130ac565b811461361a57600080fd5b50565b60008151905061362c81613606565b92915050565b600060c08284031215613648576136476135d7565b5b61365260c061358b565b90506000613662848285016135dc565b6000830152506020613676848285016135dc565b602083015250604061368a848285016135f1565b604083015250606061369e848285016135dc565b60608301525060806136b28482850161361d565b60808301525060a06136c68482850161361d565b60a08301525092915050565b60006136e56136e0846135a6565b61358b565b90508083825260208201905060c08402830185811115613708576137076135d2565b5b835b81811015613731578061371d8882613632565b84526020840193505060c08101905061370a565b5050509392505050565b600082601f8301126137505761374f613544565b5b81516137608482602086016136d2565b91505092915050565b60006020828403121561377f5761377e612d1a565b5b600082015167ffffffffffffffff81111561379d5761379c612d1f565b5b6137a98482850161373b565b91505092915050565b600082825260208201905092915050565b7f5769746864726177616c206e6f7420726561647920746f20626520636c61696d60008201527f6564000000000000000000000000000000000000000000000000000000000000602082015250565b600061381f6022836137b2565b915061382a826137c3565b604082019050919050565b6000602082019050818103600083015261384e81613812565b9050919050565b7f4e6f74206f776e65720000000000000000000000000000000000000000000000600082015250565b600061388b6009836137b2565b915061389682613855565b602082019050919050565b600060208201905081810360008301526138ba8161387e565b9050919050565b6000602082840312156138d7576138d6612d1a565b5b60006138e5848285016135dc565b91505092915050565b7f4e487b7100000000000000000000000000000000000000000000000000000000600052601160045260246000fd5b600061392882612d24565b915061393383612d24565b925082820390508181111561394b5761394a6138ee565b5b92915050565b7f4f6e6c79204c53442065786365737320696e636f6d652063616e20626520657860008201527f6368616e67656400000000000000000000000000000000000000000000000000602082015250565b60006139ad6027836137b2565b91506139b882613951565b604082019050919050565b600060208201905081810360008301526139dc816139a0565b9050919050565b60006040820190506139f86000830185612f55565b613a056020830184612e12565b9392505050565b600060208284031215613a2257613a21612d1a565b5b6000613a308482850161361d565b91505092915050565b6000606082019050613a4e6000830186612e12565b613a5b6020830185612e12565b8181036040830152613a6d8184612e9c565b9050949350505050565b60006040820190508181036000830152613a918185612e9c565b9050613aa06020830184612f55565b9392505050565b600067ffffffffffffffff821115613ac257613ac16134e6565b5b602082029050602081019050919050565b6000613ae6613ae184613aa7565b61358b565b90508083825260208201905060208402830185811115613b0957613b086135d2565b5b835b81811015613b325780613b1e88826135dc565b845260208401935050602081019050613b0b565b5050509392505050565b600082601f830112613b5157613b50613544565b5b8151613b61848260208601613ad3565b91505092915050565b600060208284031215613b8057613b7f612d1a565b5b600082015167ffffffffffffffff811115613b9e57613b9d612d1f565b5b613baa84828501613b3c565b91505092915050565b7f444e4c0000000000000000000000000000000000000000000000000000000000600082015250565b6000613be96003836137b2565b9150613bf482613bb3565b602082019050919050565b60006020820190508181036000830152613c1881613bdc565b9050919050565b7f5a45524f5f4445504f5349540000000000000000000000000000000000000000600082015250565b6000613c55600c836137b2565b9150613c6082613c1f565b602082019050919050565b60006020820190508181036000830152613c8481613c48565b9050919050565b6000613c9682612d24565b9150613ca183612d24565b9250828201905080821115613cb957613cb86138ee565b5b92915050565b6000606082019050613cd46000830186612e12565b613ce16020830185612e12565b613cee6040830184612e12565b949350505050565b7f57726f6e67206665652100000000000000000000000000000000000000000000600082015250565b6000613d2c600a836137b2565b9150613d3782613cf6565b602082019050919050565b60006020820190508181036000830152613d5b81613d1f565b9050919050565b6000819050919050565b6000613d87613d82613d7d84613d62565b612f7f565b612d24565b9050919050565b613d9781613d6c565b82525050565b60006060820190508181036000830152613db78186612e9c565b9050613dc66020830185613d8e565b613dd36040830184612e12565b949350505050565b60006060820190508181036000830152613df58186612e9c565b90508181036020830152613e098185612e9c565b9050613e186040830184612f55565b949350505050565b6000604082019050613e356000830185612e12565b613e426020830184612f55565b9392505050565b7f4e6f7420656e6f75676820455448000000000000000000000000000000000000600082015250565b6000613e7f600e836137b2565b9150613e8a82613e49565b602082019050919050565b60006020820190508181036000830152613eae81613e72565b9050919050565b7f4164647265737320666f7220636173686261636b616e6470726f746f636f6c2c60008201527f207475622c206f722042434b20736176696e6773206163636f756e742069732060208201527f6e6f742073657400000000000000000000000000000000000000000000000000604082015250565b6000613f376047836137b2565b9150613f4282613eb5565b606082019050919050565b60006020820190508181036000830152613f6681613f2a565b9050919050565b7f4e487b7100000000000000000000000000000000000000000000000000000000600052601260045260246000fd5b6000613fa782612d24565b9150613fb283612d24565b925082613fc257613fc1613f6d565b5b828204905092915050565b6000613fd882612d24565b9150613fe383612d24565b9250828202613ff181612d24565b91508282048414831517614008576140076138ee565b5b5092915050565b7f496e76616c69642073706c697420616d6f756e74730000000000000000000000600082015250565b60006140456015836137b2565b91506140508261400f565b602082019050919050565b6000602082019050818103600083015261407481614038565b9050919050565b7f53776170206661696c6564000000000000000000000000000000000000000000600082015250565b60006140b1600b836137b2565b91506140bc8261407b565b602082019050919050565b600060208201905081810360008301526140e0816140a4565b9050919050565b7f417070726f7665206661696c6564000000000000000000000000000000000000600082015250565b600061411d600e836137b2565b9150614128826140e7565b602082019050919050565b6000602082019050818103600083015261414c81614110565b9050919050565b600081905092915050565b50565b600061416e600083614153565b91506141798261415e565b600082019050919050565b600061418f82614161565b9150819050919050565b7f5472616e73666572206661696c65640000000000000000000000000000000000600082015250565b60006141cf600f836137b2565b91506141da82614199565b602082019050919050565b600060208201905081810360008301526141fe816141c2565b9050919050565b600060a08201905061421a6000830188612e12565b6142276020830187612e12565b6142346040830186612e12565b6142416060830185612e12565b61424e6080830184612e12565b9695505050505050565b7f69747320616c7265616479207365740000000000000000000000000000000000600082015250565b600061428e600f836137b2565b915061429982614258565b602082019050919050565b600060208201905081810360008301526142bd81614281565b9050919050565b7f7468657265206973206e6f7420656e6f7567682045544820696e20746869732060008201527f636f6e7472616374000000000000000000000000000000000000000000000000602082015250565b60006143206028836137b2565b915061432b826142c4565b604082019050919050565b6000602082019050818103600083015261434f81614313565b9050919050565b600060608201905061436b6000830186612e12565b6143786020830185613417565b818103604083015261438a8184612e9c565b9050949350505050565b7f4e6f7420656e6f756768204554482062616c616e636500000000000000000000600082015250565b60006143ca6016836137b2565b91506143d582614394565b602082019050919050565b600060208201905081810360008301526143f9816143bd565b9050919050565b61440981612f1c565b82525050565b61441881612d87565b82525050565b61010082016000820151614435600085018261309d565b506020820151614448602085018261309d565b50604082015161445b6040850182614400565b50606082015161446e606085018261309d565b5060808201516144816080850182612e68565b5060a082015161449460a0850182612e68565b5060c08201516144a760c0850182612e68565b5060e08201516144ba60e085018261440f565b50505050565b6000610100820190506144d6600083018461441e565b9291505056fea2646970667358221220281e4b7095326d9653e99b4ddb62fdb4b8acbd78d72c292b4dae4a132d0c332264736f6c63430008130033",
    "linkReferences": {},
    "deployedLinkReferences": {}
}